{
  "_format": "hh-sol-artifact-1",
  "contractName": "AuthorizationManager",
  "sourceName": "contracts/AuthorizationManager.sol",
  "abi": [
    {
      "inputs": [
        {
          "internalType": "address",
          "name": "_signer",
          "type": "address"
        }
      ],
      "stateMutability": "nonpayable",
      "type": "constructor"
    },
    {
      "anonymous": false,
      "inputs": [
        {
          "indexed": true,
          "internalType": "bytes32",
          "name": "authHash",
          "type": "bytes32"
        },
        {
          "indexed": true,
          "internalType": "address",
          "name": "vault",
          "type": "address"
        },
        {
          "indexed": true,
          "internalType": "address",
          "name": "recipient",
          "type": "address"
        },
        {
          "indexed": false,
          "internalType": "uint256",
          "name": "amount",
          "type": "uint256"
        },
        {
          "indexed": false,
          "internalType": "bytes32",
          "name": "authId",
          "type": "bytes32"
        }
      ],
      "name": "AuthorizationUsed",
      "type": "event"
    },
    {
      "inputs": [],
      "name": "signer",
      "outputs": [
        {
          "internalType": "address",
          "name": "",
          "type": "address"
        }
      ],
      "stateMutability": "view",
      "type": "function"
    },
    {
      "inputs": [
        {
          "internalType": "bytes32",
          "name": "",
          "type": "bytes32"
        }
      ],
      "name": "usedAuthorizations",
      "outputs": [
        {
          "internalType": "bool",
          "name": "",
          "type": "bool"
        }
      ],
      "stateMutability": "view",
      "type": "function"
    },
    {
      "inputs": [
        {
          "internalType": "address",
          "name": "vault",
          "type": "address"
        },
        {
          "internalType": "address",
          "name": "recipient",
          "type": "address"
        },
        {
          "internalType": "uint256",
          "name": "amount",
          "type": "uint256"
        },
        {
          "internalType": "bytes32",
          "name": "authId",
          "type": "bytes32"
        },
        {
          "internalType": "bytes",
          "name": "signature",
          "type": "bytes"
        }
      ],
      "name": "verifyAuthorization",
      "outputs": [
        {
          "internalType": "bool",
          "name": "",
          "type": "bool"
        }
      ],
      "stateMutability": "nonpayable",
      "type": "function"
    }
  ],
  "bytecode": "0x6080604052348015600f57600080fd5b506040516105ca3803806105ca833981016040819052602c91609a565b6001600160a01b03811660765760405162461bcd60e51b815260206004820152600e60248201526d34b73b30b634b21039b4b3b732b960911b604482015260640160405180910390fd5b600080546001600160a01b0319166001600160a01b039290921691909117905560c8565b60006020828403121560ab57600080fd5b81516001600160a01b038116811460c157600080fd5b9392505050565b6104f3806100d76000396000f3fe608060405234801561001057600080fd5b50600436106100415760003560e01c8063238ac933146100465780634f55289614610076578063d5a1780b14610099575b600080fd5b600054610059906001600160a01b031681565b6040516001600160a01b0390911681526020015b60405180910390f35b6100896100843660046103fb565b6100bc565b604051901515815260200161006d565b6100896100a73660046104a4565b60016020526000908152604090205460ff1681565b60408051606088811b6bffffffffffffffffffffffff199081166020808501919091524660348501529189901b1660548301526068820187905260888083018790528351808403909101815260a89092019092528051910120600090819060008181526001602052604090205490915060ff16156101815760405162461bcd60e51b815260206004820152601a60248201527f617574686f72697a6174696f6e20616c7265616479207573656400000000000060448201526064015b60405180910390fd5b6040517f19457468657265756d205369676e6564204d6573736167653a0a3332000000006020820152603c8101829052600090605c01604051602081830303815290604052805190602001209050600080600061021388888080601f01602080910402602001604051908101604052809392919081815260200183838082843760009201919091525061036b92505050565b925092509250600060018583868660405160008152602001604052604051610257949392919093845260ff9290921660208401526040830152606082015260800190565b6020604051602081039080840390855afa158015610279573d6000803e3d6000fd5b5050604051601f1901516000549092506001600160a01b0380841691161490506102d65760405162461bcd60e51b815260206004820152600e60248201526d34b73b30b634b21039b4b3b732b960911b6044820152606401610178565b600180600088815260200190815260200160002060006101000a81548160ff0219169083151502179055508b6001600160a01b03168d6001600160a01b0316877fb9354f434daf51578ed28b2e2c9ddbbb59e8d86ada270cdc520466129ae9a8428e8e604051610350929190918252602082015260400190565b60405180910390a45060019c9b505050505050505050505050565b600080600083516041146103c15760405162461bcd60e51b815260206004820152601860248201527f696e76616c6964207369676e6174757265206c656e67746800000000000000006044820152606401610178565b50505060208101516040820151606090920151909260009190911a90565b80356001600160a01b03811681146103f657600080fd5b919050565b60008060008060008060a0878903121561041457600080fd5b61041d876103df565b955061042b602088016103df565b94506040870135935060608701359250608087013567ffffffffffffffff81111561045557600080fd5b8701601f8101891361046657600080fd5b803567ffffffffffffffff81111561047d57600080fd5b89602082840101111561048f57600080fd5b60208201935080925050509295509295509295565b6000602082840312156104b657600080fd5b503591905056fea264697066735822122014a9b8c70f9f2d4191707404420dc909b89287aaab50fea2d96117689b223d3f64736f6c634300081c0033",
  "linkReferences": {},
  "deployedLinkReferences": {}
}