{
  "_format": "hh-sol-artifact-1",
  "contractName": "SecureVault",
  "sourceName": "contracts/SecureVault.sol",
  "abi": [
    {
      "inputs": [
        {
          "internalType": "contract AuthorizationManager",
          "name": "_authManager",
          "type": "address"
        }
      ],
      "stateMutability": "nonpayable",
      "type": "constructor"
    },
    {
      "anonymous": false,
      "inputs": [
        {
          "indexed": true,
          "internalType": "address",
          "name": "sender",
          "type": "address"
        },
        {
          "indexed": false,
          "internalType": "uint256",
          "name": "amount",
          "type": "uint256"
        }
      ],
      "name": "Deposit",
      "type": "event"
    },
    {
      "anonymous": false,
      "inputs": [
        {
          "indexed": true,
          "internalType": "address",
          "name": "recipient",
          "type": "address"
        },
        {
          "indexed": false,
          "internalType": "uint256",
          "name": "amount",
          "type": "uint256"
        },
        {
          "indexed": false,
          "internalType": "bytes32",
          "name": "authId",
          "type": "bytes32"
        }
      ],
      "name": "Withdrawal",
      "type": "event"
    },
    {
      "inputs": [],
      "name": "authManager",
      "outputs": [
        {
          "internalType": "contract AuthorizationManager",
          "name": "",
          "type": "address"
        }
      ],
      "stateMutability": "view",
      "type": "function"
    },
    {
      "inputs": [],
      "name": "totalDeposited",
      "outputs": [
        {
          "internalType": "uint256",
          "name": "",
          "type": "uint256"
        }
      ],
      "stateMutability": "view",
      "type": "function"
    },
    {
      "inputs": [],
      "name": "totalWithdrawn",
      "outputs": [
        {
          "internalType": "uint256",
          "name": "",
          "type": "uint256"
        }
      ],
      "stateMutability": "view",
      "type": "function"
    },
    {
      "inputs": [
        {
          "internalType": "address payable",
          "name": "recipient",
          "type": "address"
        },
        {
          "internalType": "uint256",
          "name": "amount",
          "type": "uint256"
        },
        {
          "internalType": "bytes32",
          "name": "authId",
          "type": "bytes32"
        },
        {
          "internalType": "bytes",
          "name": "signature",
          "type": "bytes"
        }
      ],
      "name": "withdraw",
      "outputs": [],
      "stateMutability": "nonpayable",
      "type": "function"
    },
    {
      "stateMutability": "payable",
      "type": "receive"
    }
  ],
  "bytecode": "0x6080604052348015600f57600080fd5b50604051610618380380610618833981016040819052602c916050565b600080546001600160a01b0319166001600160a01b0392909216919091179055607e565b600060208284031215606157600080fd5b81516001600160a01b0381168114607757600080fd5b9392505050565b61058b8061008d6000396000f3fe6080604052600436106100435760003560e01c80634b319713146100db578063920811b214610104578063b39a1c6b1461013c578063ff50abdc1461015e57600080fd5b366100d657600034116100885760405162461bcd60e51b81526020600482015260086024820152676e6f2076616c756560c01b60448201526064015b60405180910390fd5b346001600082825461009a9190610408565b909155505060405134815233907fe1fffcc4923d04b559f4d29a8bfc6cda04eb5b0d3c460751c2402c5c5cc9109c9060200160405180910390a2005b600080fd5b3480156100e757600080fd5b506100f160025481565b6040519081526020015b60405180910390f35b34801561011057600080fd5b50600054610124906001600160a01b031681565b6040516001600160a01b0390911681526020016100fb565b34801561014857600080fd5b5061015c61015736600461042f565b610174565b005b34801561016a57600080fd5b506100f160015481565b6001600160a01b0385166101be5760405162461bcd60e51b81526020600482015260116024820152701a5b9d985b1a59081c9958da5c1a595b9d607a1b604482015260640161007f565b600084116102035760405162461bcd60e51b81526020600482015260126024820152710616d6f756e74206d757374206265203e20360741b604482015260640161007f565b600080546040516327aa944b60e11b81526001600160a01b0390911690634f5528969061023e9030908a908a908a908a908a906004016104d3565b6020604051808303816000875af115801561025d573d6000803e3d6000fd5b505050506040513d601f19601f82011682018060405250810190610281919061052c565b9050806102c15760405162461bcd60e51b815260206004820152600e60248201526d1b9bdd08185d5d1a1bdc9a5e995960921b604482015260640161007f565b844710156103115760405162461bcd60e51b815260206004820152601a60248201527f696e73756666696369656e74207661756c742062616c616e6365000000000000604482015260640161007f565b84600260008282546103239190610408565b90915550506040516000906001600160a01b0388169087908381818185875af1925050503d8060008114610373576040519150601f19603f3d011682016040523d82523d6000602084013e610378565b606091505b50509050806103bb5760405162461bcd60e51b815260206004820152600f60248201526e1d1c985b9cd9995c8819985a5b1959608a1b604482015260640161007f565b60408051878152602081018790526001600160a01b038916917f806bc37112176c187cccea4249aea74827b609b5e40d595301442638bfd57367910160405180910390a250505050505050565b8082018082111561042957634e487b7160e01b600052601160045260246000fd5b92915050565b60008060008060006080868803121561044757600080fd5b85356001600160a01b038116811461045e57600080fd5b94506020860135935060408601359250606086013567ffffffffffffffff81111561048857600080fd5b8601601f8101881361049957600080fd5b803567ffffffffffffffff8111156104b057600080fd5b8860208284010111156104c257600080fd5b959894975092955050506020019190565b6001600160a01b03878116825286166020820152604081018590526060810184905260a0608082018190528101829052818360c0830137600081830160c090810191909152601f909201601f1916010195945050505050565b60006020828403121561053e57600080fd5b8151801515811461054e57600080fd5b939250505056fea264697066735822122005b067572ca0af6c6463ffc4b6753d09f299972a10d7d8f290e63d32370b3f8564736f6c634300081c0033",
  "linkReferences": {},
  "deployedLinkReferences": {}
}